{"abi":[{"type":"constructor","inputs":[],"stateMutability":"nonpayable"},{"type":"function","name":"approve","inputs":[{"name":"to","type":"address","internalType":"address"},{"name":"tokenId","type":"uint256","internalType":"uint256"}],"outputs":[],"stateMutability":"nonpayable"},{"type":"function","name":"balanceOf","inputs":[{"name":"owner","type":"address","internalType":"address"}],"outputs":[{"name":"","type":"uint256","internalType":"uint256"}],"stateMutability":"view"},{"type":"function","name":"blacklist","inputs":[{"name":"user","type":"address","internalType":"address"}],"outputs":[],"stateMutability":"nonpayable"},{"type":"function","name":"getApproved","inputs":[{"name":"tokenId","type":"uint256","internalType":"uint256"}],"outputs":[{"name":"","type":"address","internalType":"address"}],"stateMutability":"view"},{"type":"function","name":"getTokenUri","inputs":[{"name":"tokenId","type":"uint256","internalType":"uint256"}],"outputs":[{"name":"","type":"bytes32","internalType":"bytes32"}],"stateMutability":"view"},{"type":"function","name":"isAddressBlackListed","inputs":[{"name":"user","type":"address","internalType":"address"}],"outputs":[{"name":"","type":"bool","internalType":"bool"}],"stateMutability":"view"},{"type":"function","name":"isApprovedForAll","inputs":[{"name":"owner","type":"address","internalType":"address"},{"name":"operator","type":"address","internalType":"address"}],"outputs":[{"name":"","type":"bool","internalType":"bool"}],"stateMutability":"view"},{"type":"function","name":"isRegistered","inputs":[{"name":"user","type":"address","internalType":"address"}],"outputs":[{"name":"","type":"bool","internalType":"bool"}],"stateMutability":"view"},{"type":"function","name":"mintNft","inputs":[{"name":"recipient","type":"address","internalType":"address"},{"name":"tokenUri","type":"bytes32","internalType":"bytes32"}],"outputs":[],"stateMutability":"payable"},{"type":"function","name":"name","inputs":[],"outputs":[{"name":"","type":"string","internalType":"string"}],"stateMutability":"view"},{"type":"function","name":"owner","inputs":[],"outputs":[{"name":"","type":"address","internalType":"address"}],"stateMutability":"view"},{"type":"function","name":"ownerOf","inputs":[{"name":"tokenId","type":"uint256","internalType":"uint256"}],"outputs":[{"name":"","type":"address","internalType":"address"}],"stateMutability":"view"},{"type":"function","name":"register","inputs":[{"name":"user","type":"address","internalType":"address"}],"outputs":[],"stateMutability":"payable"},{"type":"function","name":"renounceOwnership","inputs":[],"outputs":[],"stateMutability":"nonpayable"},{"type":"function","name":"safeTransferFrom","inputs":[{"name":"from","type":"address","internalType":"address"},{"name":"to","type":"address","internalType":"address"},{"name":"tokenId","type":"uint256","internalType":"uint256"}],"outputs":[],"stateMutability":"nonpayable"},{"type":"function","name":"safeTransferFrom","inputs":[{"name":"from","type":"address","internalType":"address"},{"name":"to","type":"address","internalType":"address"},{"name":"tokenId","type":"uint256","internalType":"uint256"},{"name":"data","type":"bytes","internalType":"bytes"}],"outputs":[],"stateMutability":"nonpayable"},{"type":"function","name":"setApprovalForAll","inputs":[{"name":"operator","type":"address","internalType":"address"},{"name":"approved","type":"bool","internalType":"bool"}],"outputs":[],"stateMutability":"nonpayable"},{"type":"function","name":"supportsInterface","inputs":[{"name":"interfaceId","type":"bytes4","internalType":"bytes4"}],"outputs":[{"name":"","type":"bool","internalType":"bool"}],"stateMutability":"view"},{"type":"function","name":"symbol","inputs":[],"outputs":[{"name":"","type":"string","internalType":"string"}],"stateMutability":"view"},{"type":"function","name":"tokenURI","inputs":[{"name":"tokenId","type":"uint256","internalType":"uint256"}],"outputs":[{"name":"","type":"string","internalType":"string"}],"stateMutability":"view"},{"type":"function","name":"transferFrom","inputs":[{"name":"from","type":"address","internalType":"address"},{"name":"to","type":"address","internalType":"address"},{"name":"tokenId","type":"uint256","internalType":"uint256"}],"outputs":[],"stateMutability":"nonpayable"},{"type":"function","name":"transferOwnership","inputs":[{"name":"newOwner","type":"address","internalType":"address"}],"outputs":[],"stateMutability":"nonpayable"},{"type":"event","name":"Approval","inputs":[{"name":"owner","type":"address","indexed":true,"internalType":"address"},{"name":"approved","type":"address","indexed":true,"internalType":"address"},{"name":"tokenId","type":"uint256","indexed":true,"internalType":"uint256"}],"anonymous":false},{"type":"event","name":"ApprovalForAll","inputs":[{"name":"owner","type":"address","indexed":true,"internalType":"address"},{"name":"operator","type":"address","indexed":true,"internalType":"address"},{"name":"approved","type":"bool","indexed":false,"internalType":"bool"}],"anonymous":false},{"type":"event","name":"NftMinted","inputs":[{"name":"tokenUri","type":"bytes32","indexed":false,"internalType":"bytes32"},{"name":"recipient","type":"address","indexed":false,"internalType":"address"}],"anonymous":false},{"type":"event","name":"OwnershipTransferred","inputs":[{"name":"previousOwner","type":"address","indexed":true,"internalType":"address"},{"name":"newOwner","type":"address","indexed":true,"internalType":"address"}],"anonymous":false},{"type":"event","name":"Transfer","inputs":[{"name":"from","type":"address","indexed":true,"internalType":"address"},{"name":"to","type":"address","indexed":true,"internalType":"address"},{"name":"tokenId","type":"uint256","indexed":true,"internalType":"uint256"}],"anonymous":false},{"type":"event","name":"UserBlackListed","inputs":[{"name":"user","type":"address","indexed":false,"internalType":"address"}],"anonymous":false},{"type":"event","name":"UserRegistered","inputs":[{"name":"user","type":"address","indexed":false,"internalType":"address"}],"anonymous":false},{"type":"error","name":"ERC721IncorrectOwner","inputs":[{"name":"sender","type":"address","internalType":"address"},{"name":"tokenId","type":"uint256","internalType":"uint256"},{"name":"owner","type":"address","internalType":"address"}]},{"type":"error","name":"ERC721InsufficientApproval","inputs":[{"name":"operator","type":"address","internalType":"address"},{"name":"tokenId","type":"uint256","internalType":"uint256"}]},{"type":"error","name":"ERC721InvalidApprover","inputs":[{"name":"approver","type":"address","internalType":"address"}]},{"type":"error","name":"ERC721InvalidOperator","inputs":[{"name":"operator","type":"address","internalType":"address"}]},{"type":"error","name":"ERC721InvalidOwner","inputs":[{"name":"owner","type":"address","internalType":"address"}]},{"type":"error","name":"ERC721InvalidReceiver","inputs":[{"name":"receiver","type":"address","internalType":"address"}]},{"type":"error","name":"ERC721InvalidSender","inputs":[{"name":"sender","type":"address","internalType":"address"}]},{"type":"error","name":"ERC721NonexistentToken","inputs":[{"name":"tokenId","type":"uint256","internalType":"uint256"}]},{"type":"error","name":"NotEnoughFundsSent","inputs":[{"name":"funds","type":"uint256","internalType":"uint256"}]},{"type":"error","name":"OwnableInvalidOwner","inputs":[{"name":"owner","type":"address","internalType":"address"}]},{"type":"error","name":"OwnableUnauthorizedAccount","inputs":[{"name":"account","type":"address","internalType":"address"}]},{"type":"error","name":"UserAlreadyBlackListed","inputs":[{"name":"caller","type":"address","internalType":"address"}]},{"type":"error","name":"UserAlreadyRegistered","inputs":[{"name":"caller","type":"address","internalType":"address"}]},{"type":"error","name":"UserIsBlackListed","inputs":[{"name":"caller","type":"address","internalType":"address"}]},{"type":"error","name":"UserIsNotRegistered","inputs":[{"name":"caller","type":"address","internalType":"address"}]}],"bytecode":{"object":"0x608060405234801561001057600080fd5b50336040518060400160405280601081526020017f436572657320436f6c6c656374696f6e000000000000000000000000000000008152506040518060400160405280600481526020017f43434f4c00000000000000000000000000000000000000000000000000000000815250816000908161008d919061043d565b50806001908161009d919061043d565b505050600073ffffffffffffffffffffffffffffffffffffffff168173ffffffffffffffffffffffffffffffffffffffff16036101125760006040517f1e4fbdf70000000000000000000000000000000000000000000000000000000081526004016101099190610550565b60405180910390fd5b6101218161012760201b60201c565b5061056b565b6000600660009054906101000a900473ffffffffffffffffffffffffffffffffffffffff16905081600660006101000a81548173ffffffffffffffffffffffffffffffffffffffff021916908373ffffffffffffffffffffffffffffffffffffffff1602179055508173ffffffffffffffffffffffffffffffffffffffff168173ffffffffffffffffffffffffffffffffffffffff167f8be0079c531659141344cd1fd0a4f28419497f9722a3daafe3b4186f6b6457e060405160405180910390a35050565b600081519050919050565b7f4e487b7100000000000000000000000000000000000000000000000000000000600052604160045260246000fd5b7f4e487b7100000000000000000000000000000000000000000000000000000000600052602260045260246000fd5b6000600282049050600182168061026e57607f821691505b60208210810361028157610280610227565b5b50919050565b60008190508160005260206000209050919050565b60006020601f8301049050919050565b600082821b905092915050565b6000600883026102e97fffffffffffffffffffffffffffffffffffffffffffffffffffffffffffffffff826102ac565b6102f386836102ac565b95508019841693508086168417925050509392505050565b6000819050919050565b6000819050919050565b600061033a6103356103308461030b565b610315565b61030b565b9050919050565b6000819050919050565b6103548361031f565b61036861036082610341565b8484546102b9565b825550505050565b600090565b61037d610370565b61038881848461034b565b505050565b5b818110156103ac576103a1600082610375565b60018101905061038e565b5050565b601f8211156103f1576103c281610287565b6103cb8461029c565b810160208510156103da578190505b6103ee6103e68561029c565b83018261038d565b50505b505050565b600082821c905092915050565b6000610414600019846008026103f6565b1980831691505092915050565b600061042d8383610403565b9150826002028217905092915050565b610446826101ed565b67ffffffffffffffff81111561045f5761045e6101f8565b5b6104698254610256565b6104748282856103b0565b600060209050601f8311600181146104a75760008415610495578287015190505b61049f8582610421565b865550610507565b601f1984166104b586610287565b60005b828110156104dd578489015182556001820191506020850194506020810190506104b8565b868310156104fa57848901516104f6601f891682610403565b8355505b6001600288020188555050505b505050505050565b600073ffffffffffffffffffffffffffffffffffffffff82169050919050565b600061053a8261050f565b9050919050565b61054a8161052f565b82525050565b60006020820190506105656000830184610541565b92915050565b6128e58061057a6000396000f3fe6080604052600436106101355760003560e01c8063715018a6116100ab578063b88d4fde1161006f578063b88d4fde1461041c578063c3c5a54714610445578063c87b56dd14610482578063e985e9c5146104bf578063f2fde38b146104fc578063f9f92be41461052557610135565b8063715018a6146103495780638ad91345146103605780638da5cb5b1461039d57806395d89b41146103c8578063a22cb465146103f357610135565b806323b872dd116100fd57806323b872dd1461022457806342842e0e1461024d5780634420e4861461027657806345e1f743146102925780636352211e146102cf57806370a082311461030c57610135565b806301ffc9a71461013a57806306fdde0314610177578063081812fc146101a2578063095ea7b3146101df57806316e37a2a14610208575b600080fd5b34801561014657600080fd5b50610161600480360381019061015c9190612066565b61054e565b60405161016e91906120ae565b60405180910390f35b34801561018357600080fd5b5061018c610630565b6040516101999190612159565b60405180910390f35b3480156101ae57600080fd5b506101c960048036038101906101c491906121b1565b6106c2565b6040516101d6919061221f565b60405180910390f35b3480156101eb57600080fd5b5061020660048036038101906102019190612266565b6106de565b005b610222600480360381019061021d91906122dc565b6106f4565b005b34801561023057600080fd5b5061024b6004803603810190610246919061231c565b6108d0565b005b34801561025957600080fd5b50610274600480360381019061026f919061231c565b6109d2565b005b610290600480360381019061028b919061236f565b6109f2565b005b34801561029e57600080fd5b506102b960048036038101906102b4919061236f565b610bec565b6040516102c691906120ae565b60405180910390f35b3480156102db57600080fd5b506102f660048036038101906102f191906121b1565b610c42565b604051610303919061221f565b60405180910390f35b34801561031857600080fd5b50610333600480360381019061032e919061236f565b610c54565b60405161034091906123ab565b60405180910390f35b34801561035557600080fd5b5061035e610d0e565b005b34801561036c57600080fd5b50610387600480360381019061038291906121b1565b610d22565b60405161039491906123d5565b60405180910390f35b3480156103a957600080fd5b506103b2610d3f565b6040516103bf919061221f565b60405180910390f35b3480156103d457600080fd5b506103dd610d69565b6040516103ea9190612159565b60405180910390f35b3480156103ff57600080fd5b5061041a6004803603810190610415919061241c565b610dfb565b005b34801561042857600080fd5b50610443600480360381019061043e9190612591565b610e11565b005b34801561045157600080fd5b5061046c6004803603810190610467919061236f565b610e2e565b60405161047991906120ae565b60405180910390f35b34801561048e57600080fd5b506104a960048036038101906104a491906121b1565b610e84565b6040516104b69190612159565b60405180910390f35b3480156104cb57600080fd5b506104e660048036038101906104e19190612614565b610eed565b6040516104f391906120ae565b60405180910390f35b34801561050857600080fd5b50610523600480360381019061051e919061236f565b610f81565b005b34801561053157600080fd5b5061054c6004803603810190610547919061236f565b611007565b005b60007f80ac58cd000000000000000000000000000000000000000000000000000000007bffffffffffffffffffffffffffffffffffffffffffffffffffffffff1916827bffffffffffffffffffffffffffffffffffffffffffffffffffffffff1916148061061957507f5b5e139f000000000000000000000000000000000000000000000000000000007bffffffffffffffffffffffffffffffffffffffffffffffffffffffff1916827bffffffffffffffffffffffffffffffffffffffffffffffffffffffff1916145b80610629575061062882611132565b5b9050919050565b60606000805461063f90612683565b80601f016020809104026020016040519081016040528092919081815260200182805461066b90612683565b80156106b85780601f1061068d576101008083540402835291602001916106b8565b820191906000526020600020905b81548152906001019060200180831161069b57829003601f168201915b5050505050905090565b60006106cd8261119c565b506106d782611224565b9050919050565b6106f082826106eb611261565b611269565b5050565b600960003373ffffffffffffffffffffffffffffffffffffffff1673ffffffffffffffffffffffffffffffffffffffff16815260200190815260200160002060009054906101000a900460ff161561078357336040517f9822a16700000000000000000000000000000000000000000000000000000000815260040161077a919061221f565b60405180910390fd5b600860003373ffffffffffffffffffffffffffffffffffffffff1673ffffffffffffffffffffffffffffffffffffffff16815260200190815260200160002060009054906101000a900460ff1661081157336040517fb78b2680000000000000000000000000000000000000000000000000000000008152600401610808919061221f565b60405180910390fd5b655af3107a4000341461085b57346040517fd0537aed00000000000000000000000000000000000000000000000000000000815260040161085291906123ab565b60405180910390fd5b80600a60006007548152602001908152602001600020819055506108818260075461127b565b6007600081548092919060010191905055507f9d80753c412e80454dd6a90af4267c3c352e22cd971a58fe462b8a6a8fff9f0a81836040516108c49291906126b4565b60405180910390a15050565b600073ffffffffffffffffffffffffffffffffffffffff168273ffffffffffffffffffffffffffffffffffffffff16036109425760006040517f64a0ae92000000000000000000000000000000000000000000000000000000008152600401610939919061221f565b60405180910390fd5b60006109568383610951611261565b611299565b90508373ffffffffffffffffffffffffffffffffffffffff168173ffffffffffffffffffffffffffffffffffffffff16146109cc578382826040517f64283d7b0000000000000000000000000000000000000000000000000000000081526004016109c3939291906126dd565b60405180910390fd5b50505050565b6109ed83838360405180602001604052806000815250610e11565b505050565b600960003373ffffffffffffffffffffffffffffffffffffffff1673ffffffffffffffffffffffffffffffffffffffff16815260200190815260200160002060009054906101000a900460ff1615610a8157336040517f9822a167000000000000000000000000000000000000000000000000000000008152600401610a78919061221f565b60405180910390fd5b655af3107a40003414610acb57346040517fd0537aed000000000000000000000000000000000000000000000000000000008152600401610ac291906123ab565b60405180910390fd5b600860003373ffffffffffffffffffffffffffffffffffffffff1673ffffffffffffffffffffffffffffffffffffffff16815260200190815260200160002060009054906101000a900460ff1615610b5a57336040517f9e676ee7000000000000000000000000000000000000000000000000000000008152600401610b51919061221f565b60405180910390fd5b6001600860008373ffffffffffffffffffffffffffffffffffffffff1673ffffffffffffffffffffffffffffffffffffffff16815260200190815260200160002060006101000a81548160ff0219169083151502179055507f54db7a5cb4735e1aac1f53db512d3390390bb6637bd30ad4bf9fc98667d9b9b981604051610be1919061221f565b60405180910390a150565b6000600960008373ffffffffffffffffffffffffffffffffffffffff1673ffffffffffffffffffffffffffffffffffffffff16815260200190815260200160002060009054906101000a900460ff169050919050565b6000610c4d8261119c565b9050919050565b60008073ffffffffffffffffffffffffffffffffffffffff168273ffffffffffffffffffffffffffffffffffffffff1603610cc75760006040517f89c62b64000000000000000000000000000000000000000000000000000000008152600401610cbe919061221f565b60405180910390fd5b600360008373ffffffffffffffffffffffffffffffffffffffff1673ffffffffffffffffffffffffffffffffffffffff168152602001908152602001600020549050919050565b610d166114b3565b610d20600061153a565b565b6000600a6000838152602001908152602001600020549050919050565b6000600660009054906101000a900473ffffffffffffffffffffffffffffffffffffffff16905090565b606060018054610d7890612683565b80601f0160208091040260200160405190810160405280929190818152602001828054610da490612683565b8015610df15780601f10610dc657610100808354040283529160200191610df1565b820191906000526020600020905b815481529060010190602001808311610dd457829003601f168201915b5050505050905090565b610e0d610e06611261565b8383611600565b5050565b610e1c8484846108d0565b610e288484848461176f565b50505050565b6000600860008373ffffffffffffffffffffffffffffffffffffffff1673ffffffffffffffffffffffffffffffffffffffff16815260200190815260200160002060009054906101000a900460ff169050919050565b6060610e8f8261119c565b506000610e9a611926565b90506000815111610eba5760405180602001604052806000815250610ee5565b80610ec48461193d565b604051602001610ed5929190612750565b6040516020818303038152906040525b915050919050565b6000600560008473ffffffffffffffffffffffffffffffffffffffff1673ffffffffffffffffffffffffffffffffffffffff16815260200190815260200160002060008373ffffffffffffffffffffffffffffffffffffffff1673ffffffffffffffffffffffffffffffffffffffff16815260200190815260200160002060009054906101000a900460ff16905092915050565b610f896114b3565b600073ffffffffffffffffffffffffffffffffffffffff168173ffffffffffffffffffffffffffffffffffffffff1603610ffb5760006040517f1e4fbdf7000000000000000000000000000000000000000000000000000000008152600401610ff2919061221f565b60405180910390fd5b6110048161153a565b50565b61100f6114b3565b80600960008273ffffffffffffffffffffffffffffffffffffffff1673ffffffffffffffffffffffffffffffffffffffff16815260200190815260200160002060009054906101000a900460ff161561109f57806040517f5ecee213000000000000000000000000000000000000000000000000000000008152600401611096919061221f565b60405180910390fd5b6001600960008473ffffffffffffffffffffffffffffffffffffffff1673ffffffffffffffffffffffffffffffffffffffff16815260200190815260200160002060006101000a81548160ff0219169083151502179055507f2b5134f81317c3f668d26494991ff4e24cf0ad2cf6b677be6944d3380ff1fc1782604051611126919061221f565b60405180910390a15050565b60007f01ffc9a7000000000000000000000000000000000000000000000000000000007bffffffffffffffffffffffffffffffffffffffffffffffffffffffff1916827bffffffffffffffffffffffffffffffffffffffffffffffffffffffff1916149050919050565b6000806111a883611a0b565b9050600073ffffffffffffffffffffffffffffffffffffffff168173ffffffffffffffffffffffffffffffffffffffff160361121b57826040517f7e27328900000000000000000000000000000000000000000000000000000000815260040161121291906123ab565b60405180910390fd5b80915050919050565b60006004600083815260200190815260200160002060009054906101000a900473ffffffffffffffffffffffffffffffffffffffff169050919050565b600033905090565b6112768383836001611a48565b505050565b611295828260405180602001604052806000815250611c0d565b5050565b6000806112a584611a0b565b9050600073ffffffffffffffffffffffffffffffffffffffff168373ffffffffffffffffffffffffffffffffffffffff16146112e7576112e6818486611c29565b5b600073ffffffffffffffffffffffffffffffffffffffff168173ffffffffffffffffffffffffffffffffffffffff161461137857611329600085600080611a48565b6001600360008373ffffffffffffffffffffffffffffffffffffffff1673ffffffffffffffffffffffffffffffffffffffff168152602001908152602001600020600082825403925050819055505b600073ffffffffffffffffffffffffffffffffffffffff168573ffffffffffffffffffffffffffffffffffffffff16146113fb576001600360008773ffffffffffffffffffffffffffffffffffffffff1673ffffffffffffffffffffffffffffffffffffffff168152602001908152602001600020600082825401925050819055505b846002600086815260200190815260200160002060006101000a81548173ffffffffffffffffffffffffffffffffffffffff021916908373ffffffffffffffffffffffffffffffffffffffff160217905550838573ffffffffffffffffffffffffffffffffffffffff168273ffffffffffffffffffffffffffffffffffffffff167fddf252ad1be2c89b69c2b068fc378daa952ba7f163c4a11628f55a4df523b3ef60405160405180910390a4809150509392505050565b6114bb611261565b73ffffffffffffffffffffffffffffffffffffffff166114d9610d3f565b73ffffffffffffffffffffffffffffffffffffffff1614611538576114fc611261565b6040517f118cdaa700000000000000000000000000000000000000000000000000000000815260040161152f919061221f565b60405180910390fd5b565b6000600660009054906101000a900473ffffffffffffffffffffffffffffffffffffffff16905081600660006101000a81548173ffffffffffffffffffffffffffffffffffffffff021916908373ffffffffffffffffffffffffffffffffffffffff1602179055508173ffffffffffffffffffffffffffffffffffffffff168173ffffffffffffffffffffffffffffffffffffffff167f8be0079c531659141344cd1fd0a4f28419497f9722a3daafe3b4186f6b6457e060405160405180910390a35050565b600073ffffffffffffffffffffffffffffffffffffffff168273ffffffffffffffffffffffffffffffffffffffff160361167157816040517f5b08ba18000000000000000000000000000000000000000000000000000000008152600401611668919061221f565b60405180910390fd5b80600560008573ffffffffffffffffffffffffffffffffffffffff1673ffffffffffffffffffffffffffffffffffffffff16815260200190815260200160002060008473ffffffffffffffffffffffffffffffffffffffff1673ffffffffffffffffffffffffffffffffffffffff16815260200190815260200160002060006101000a81548160ff0219169083151502179055508173ffffffffffffffffffffffffffffffffffffffff168373ffffffffffffffffffffffffffffffffffffffff167f17307eab39ab6107e8899845ad3d59bd9653f200f220920489ca2b5937696c318360405161176291906120ae565b60405180910390a3505050565b60008373ffffffffffffffffffffffffffffffffffffffff163b1115611920578273ffffffffffffffffffffffffffffffffffffffff1663150b7a026117b3611261565b8685856040518563ffffffff1660e01b81526004016117d594939291906127c9565b6020604051808303816000875af192505050801561181157506040513d601f19601f8201168201806040525081019061180e919061282a565b60015b611895573d8060008114611841576040519150601f19603f3d011682016040523d82523d6000602084013e611846565b606091505b50600081510361188d57836040517f64a0ae92000000000000000000000000000000000000000000000000000000008152600401611884919061221f565b60405180910390fd5b805181602001fd5b63150b7a0260e01b7bffffffffffffffffffffffffffffffffffffffffffffffffffffffff1916817bffffffffffffffffffffffffffffffffffffffffffffffffffffffff19161461191e57836040517f64a0ae92000000000000000000000000000000000000000000000000000000008152600401611915919061221f565b60405180910390fd5b505b50505050565b606060405180602001604052806000815250905090565b60606000600161194c84611ced565b01905060008167ffffffffffffffff81111561196b5761196a612466565b5b6040519080825280601f01601f19166020018201604052801561199d5781602001600182028036833780820191505090505b509050600082602001820190505b600115611a00578080600190039150507f3031323334353637383961626364656600000000000000000000000000000000600a86061a8153600a85816119f4576119f3612857565b5b049450600085036119ab575b819350505050919050565b60006002600083815260200190815260200160002060009054906101000a900473ffffffffffffffffffffffffffffffffffffffff169050919050565b8080611a815750600073ffffffffffffffffffffffffffffffffffffffff168273ffffffffffffffffffffffffffffffffffffffff1614155b15611bb5576000611a918461119c565b9050600073ffffffffffffffffffffffffffffffffffffffff168373ffffffffffffffffffffffffffffffffffffffff1614158015611afc57508273ffffffffffffffffffffffffffffffffffffffff168173ffffffffffffffffffffffffffffffffffffffff1614155b8015611b0f5750611b0d8184610eed565b155b15611b5157826040517fa9fbf51f000000000000000000000000000000000000000000000000000000008152600401611b48919061221f565b60405180910390fd5b8115611bb357838573ffffffffffffffffffffffffffffffffffffffff168273ffffffffffffffffffffffffffffffffffffffff167f8c5be1e5ebec7d5bd14f71427d1e84f3dd0314c0f7b2291e5b200ac8c7c3b92560405160405180910390a45b505b836004600085815260200190815260200160002060006101000a81548173ffffffffffffffffffffffffffffffffffffffff021916908373ffffffffffffffffffffffffffffffffffffffff16021790555050505050565b611c178383611e40565b611c24600084848461176f565b505050565b611c34838383611f39565b611ce857600073ffffffffffffffffffffffffffffffffffffffff168373ffffffffffffffffffffffffffffffffffffffff1603611ca957806040517f7e273289000000000000000000000000000000000000000000000000000000008152600401611ca091906123ab565b60405180910390fd5b81816040517f177e802f000000000000000000000000000000000000000000000000000000008152600401611cdf929190612886565b60405180910390fd5b505050565b600080600090507a184f03e93ff9f4daa797ed6e38ed64bf6a1f0100000000000000008310611d4b577a184f03e93ff9f4daa797ed6e38ed64bf6a1f0100000000000000008381611d4157611d40612857565b5b0492506040810190505b6d04ee2d6d415b85acef81000000008310611d88576d04ee2d6d415b85acef81000000008381611d7e57611d7d612857565b5b0492506020810190505b662386f26fc100008310611db757662386f26fc100008381611dad57611dac612857565b5b0492506010810190505b6305f5e1008310611de0576305f5e1008381611dd657611dd5612857565b5b0492506008810190505b6127108310611e05576127108381611dfb57611dfa612857565b5b0492506004810190505b60648310611e285760648381611e1e57611e1d612857565b5b0492506002810190505b600a8310611e37576001810190505b80915050919050565b600073ffffffffffffffffffffffffffffffffffffffff168273ffffffffffffffffffffffffffffffffffffffff1603611eb25760006040517f64a0ae92000000000000000000000000000000000000000000000000000000008152600401611ea9919061221f565b60405180910390fd5b6000611ec083836000611299565b9050600073ffffffffffffffffffffffffffffffffffffffff168173ffffffffffffffffffffffffffffffffffffffff1614611f345760006040517f73c6ac6e000000000000000000000000000000000000000000000000000000008152600401611f2b919061221f565b60405180910390fd5b505050565b60008073ffffffffffffffffffffffffffffffffffffffff168373ffffffffffffffffffffffffffffffffffffffff1614158015611ff157508273ffffffffffffffffffffffffffffffffffffffff168473ffffffffffffffffffffffffffffffffffffffff161480611fb25750611fb18484610eed565b5b80611ff057508273ffffffffffffffffffffffffffffffffffffffff16611fd883611224565b73ffffffffffffffffffffffffffffffffffffffff16145b5b90509392505050565b6000604051905090565b600080fd5b600080fd5b60007fffffffff0000000000000000000000000000000000000000000000000000000082169050919050565b6120438161200e565b811461204e57600080fd5b50565b6000813590506120608161203a565b92915050565b60006020828403121561207c5761207b612004565b5b600061208a84828501612051565b91505092915050565b60008115159050919050565b6120a881612093565b82525050565b60006020820190506120c3600083018461209f565b92915050565b600081519050919050565b600082825260208201905092915050565b60005b838110156121035780820151818401526020810190506120e8565b60008484015250505050565b6000601f19601f8301169050919050565b600061212b826120c9565b61213581856120d4565b93506121458185602086016120e5565b61214e8161210f565b840191505092915050565b600060208201905081810360008301526121738184612120565b905092915050565b6000819050919050565b61218e8161217b565b811461219957600080fd5b50565b6000813590506121ab81612185565b92915050565b6000602082840312156121c7576121c6612004565b5b60006121d58482850161219c565b91505092915050565b600073ffffffffffffffffffffffffffffffffffffffff82169050919050565b6000612209826121de565b9050919050565b612219816121fe565b82525050565b60006020820190506122346000830184612210565b92915050565b612243816121fe565b811461224e57600080fd5b50565b6000813590506122608161223a565b92915050565b6000806040838503121561227d5761227c612004565b5b600061228b85828601612251565b925050602061229c8582860161219c565b9150509250929050565b6000819050919050565b6122b9816122a6565b81146122c457600080fd5b50565b6000813590506122d6816122b0565b92915050565b600080604083850312156122f3576122f2612004565b5b600061230185828601612251565b9250506020612312858286016122c7565b9150509250929050565b60008060006060848603121561233557612334612004565b5b600061234386828701612251565b935050602061235486828701612251565b92505060406123658682870161219c565b9150509250925092565b60006020828403121561238557612384612004565b5b600061239384828501612251565b91505092915050565b6123a58161217b565b82525050565b60006020820190506123c0600083018461239c565b92915050565b6123cf816122a6565b82525050565b60006020820190506123ea60008301846123c6565b92915050565b6123f981612093565b811461240457600080fd5b50565b600081359050612416816123f0565b92915050565b6000806040838503121561243357612432612004565b5b600061244185828601612251565b925050602061245285828601612407565b9150509250929050565b600080fd5b600080fd5b7f4e487b7100000000000000000000000000000000000000000000000000000000600052604160045260246000fd5b61249e8261210f565b810181811067ffffffffffffffff821117156124bd576124bc612466565b5b80604052505050565b60006124d0611ffa565b90506124dc8282612495565b919050565b600067ffffffffffffffff8211156124fc576124fb612466565b5b6125058261210f565b9050602081019050919050565b82818337600083830152505050565b600061253461252f846124e1565b6124c6565b9050828152602081018484840111156125505761254f612461565b5b61255b848285612512565b509392505050565b600082601f8301126125785761257761245c565b5b8135612588848260208601612521565b91505092915050565b600080600080608085870312156125ab576125aa612004565b5b60006125b987828801612251565b94505060206125ca87828801612251565b93505060406125db8782880161219c565b925050606085013567ffffffffffffffff8111156125fc576125fb612009565b5b61260887828801612563565b91505092959194509250565b6000806040838503121561262b5761262a612004565b5b600061263985828601612251565b925050602061264a85828601612251565b9150509250929050565b7f4e487b7100000000000000000000000000000000000000000000000000000000600052602260045260246000fd5b6000600282049050600182168061269b57607f821691505b6020821081036126ae576126ad612654565b5b50919050565b60006040820190506126c960008301856123c6565b6126d66020830184612210565b9392505050565b60006060820190506126f26000830186612210565b6126ff602083018561239c565b61270c6040830184612210565b949350505050565b600081905092915050565b600061272a826120c9565b6127348185612714565b93506127448185602086016120e5565b80840191505092915050565b600061275c828561271f565b9150612768828461271f565b91508190509392505050565b600081519050919050565b600082825260208201905092915050565b600061279b82612774565b6127a5818561277f565b93506127b58185602086016120e5565b6127be8161210f565b840191505092915050565b60006080820190506127de6000830187612210565b6127eb6020830186612210565b6127f8604083018561239c565b818103606083015261280a8184612790565b905095945050505050565b6000815190506128248161203a565b92915050565b6000602082840312156128405761283f612004565b5b600061284e84828501612815565b91505092915050565b7f4e487b7100000000000000000000000000000000000000000000000000000000600052601260045260246000fd5b600060408201905061289b6000830185612210565b6128a8602083018461239c565b939250505056fea2646970667358221220e6c0b5a0bc2c2aed0931f954f10e7cbf5b52e3114b473cabbb48194e6b760e1364736f6c634300081a0033","linkReferences":{}},"methodIdentifiers":{"approve(address,uint256)":"095ea7b3","balanceOf(address)":"70a08231","blacklist(address)":"f9f92be4","getApproved(uint256)":"081812fc","getTokenUri(uint256)":"8ad91345","isAddressBlackListed(address)":"45e1f743","isApprovedForAll(address,address)":"e985e9c5","isRegistered(address)":"c3c5a547","mintNft(address,bytes32)":"16e37a2a","name()":"06fdde03","owner()":"8da5cb5b","ownerOf(uint256)":"6352211e","register(address)":"4420e486","renounceOwnership()":"715018a6","safeTransferFrom(address,address,uint256)":"42842e0e","safeTransferFrom(address,address,uint256,bytes)":"b88d4fde","setApprovalForAll(address,bool)":"a22cb465","supportsInterface(bytes4)":"01ffc9a7","symbol()":"95d89b41","tokenURI(uint256)":"c87b56dd","transferFrom(address,address,uint256)":"23b872dd","transferOwnership(address)":"f2fde38b"},"id":37}